{
  "_format": "hh-sol-artifact-1",
  "contractName": "SwapETH",
  "sourceName": "contracts/SwapETH.sol",
  "abi": [
    {
      "inputs": [],
      "stateMutability": "nonpayable",
      "type": "constructor"
    },
    {
      "anonymous": false,
      "inputs": [
        {
          "indexed": false,
          "internalType": "uint64",
          "name": "",
          "type": "uint64"
        },
        {
          "indexed": false,
          "internalType": "address",
          "name": "",
          "type": "address"
        },
        {
          "indexed": false,
          "internalType": "uint256",
          "name": "",
          "type": "uint256"
        },
        {
          "indexed": false,
          "internalType": "enum SwapETH.Testnet",
          "name": "",
          "type": "uint8"
        }
      ],
      "name": "Received",
      "type": "event"
    },
    {
      "inputs": [
        {
          "internalType": "address payable[]",
          "name": "to",
          "type": "address[]"
        },
        {
          "internalType": "uint256[]",
          "name": "amount",
          "type": "uint256[]"
        },
        {
          "internalType": "enum SwapETH.Testnet[]",
          "name": "from",
          "type": "uint8[]"
        },
        {
          "internalType": "uint64[]",
          "name": "fromNonce",
          "type": "uint64[]"
        }
      ],
      "name": "batchTransfer",
      "outputs": [],
      "stateMutability": "nonpayable",
      "type": "function"
    },
    {
      "inputs": [],
      "name": "nonce",
      "outputs": [
        {
          "internalType": "uint64",
          "name": "",
          "type": "uint64"
        }
      ],
      "stateMutability": "view",
      "type": "function"
    },
    {
      "inputs": [],
      "name": "owner",
      "outputs": [
        {
          "internalType": "address",
          "name": "",
          "type": "address"
        }
      ],
      "stateMutability": "view",
      "type": "function"
    },
    {
      "inputs": [
        {
          "internalType": "address",
          "name": "newOwner",
          "type": "address"
        }
      ],
      "name": "passBaton",
      "outputs": [],
      "stateMutability": "nonpayable",
      "type": "function"
    },
    {
      "inputs": [
        {
          "internalType": "enum SwapETH.Testnet",
          "name": "to",
          "type": "uint8"
        }
      ],
      "name": "swap",
      "outputs": [],
      "stateMutability": "payable",
      "type": "function"
    },
    {
      "inputs": [
        {
          "internalType": "address payable",
          "name": "to",
          "type": "address"
        },
        {
          "internalType": "uint256",
          "name": "amount",
          "type": "uint256"
        },
        {
          "internalType": "enum SwapETH.Testnet",
          "name": "from",
          "type": "uint8"
        },
        {
          "internalType": "uint64",
          "name": "fromNonce",
          "type": "uint64"
        }
      ],
      "name": "transfer",
      "outputs": [],
      "stateMutability": "nonpayable",
      "type": "function"
    },
    {
      "stateMutability": "payable",
      "type": "receive"
    }
  ],
  "bytecode": "0x608060405234801561001057600080fd5b5060008054680100000000000000003302600160401b600160e01b03199091161790556107f0806100426000396000f3fe6080604052600436106100695760003560e01c8063ae6908c511610043578063ae6908c514610317578063affed0e014610337578063d80b99511461036957610070565b806310ecd023146100755780638da5cb5b146100aa5780639c30cc77146100db57610070565b3661007057005b600080fd5b34801561008157600080fd5b506100a86004803603602081101561009857600080fd5b50356001600160a01b03166103bb565b005b3480156100b657600080fd5b506100bf61045b565b604080516001600160a01b039092168252519081900360200190f35b3480156100e757600080fd5b506100a8600480360360808110156100fe57600080fd5b81019060208101813564010000000081111561011957600080fd5b82018360208201111561012b57600080fd5b8035906020019184602083028401116401000000008311171561014d57600080fd5b919080806020026020016040519081016040528093929190818152602001838360200280828437600092019190915250929594936020810193503591505064010000000081111561019d57600080fd5b8201836020820111156101af57600080fd5b803590602001918460208302840111640100000000831117156101d157600080fd5b919080806020026020016040519081016040528093929190818152602001838360200280828437600092019190915250929594936020810193503591505064010000000081111561022157600080fd5b82018360208201111561023357600080fd5b8035906020019184602083028401116401000000008311171561025557600080fd5b91908080602002602001604051908101604052809392919081815260200183836020028082843760009201919091525092959493602081019350359150506401000000008111156102a557600080fd5b8201836020820111156102b757600080fd5b803590602001918460208302840111640100000000831117156102d957600080fd5b919080806020026020016040519081016040528093929190818152602001838360200280828437600092019190915250929550610476945050505050565b6100a86004803603602081101561032d57600080fd5b503560ff1661056b565b34801561034357600080fd5b5061034c6105f7565b6040805167ffffffffffffffff9092168252519081900360200190f35b34801561037557600080fd5b506100a86004803603608081101561038c57600080fd5b5080356001600160a01b031690602081013590604081013560ff16906060013567ffffffffffffffff16610607565b6000546801000000000000000090046001600160a01b03163314610415576040805162461bcd60e51b815260206004820152600c60248201526b155b985d5d1a1bdc9a5e995960a21b604482015290519081900360640190fd5b600080546001600160a01b0390921668010000000000000000027fffffffff0000000000000000000000000000000000000000ffffffffffffffff909216919091179055565b6000546801000000000000000090046001600160a01b031681565b6000546801000000000000000090046001600160a01b031633146104d0576040805162461bcd60e51b815260206004820152600c60248201526b155b985d5d1a1bdc9a5e995960a21b604482015290519081900360640190fd5b825184511480156104e2575081518351145b80156104ef575080518251145b6104f857600080fd5b60005b84518110156105645761055c85828151811061051357fe5b602002602001015185838151811061052757fe5b602002602001015185848151811061053b57fe5b602002602001015185858151811061054f57fe5b6020026020010151610673565b6001016104fb565b5050505050565b6000805467ffffffffffffffff80821660010190811667ffffffffffffffff199092168217909255604080519182523360208301819052349183018290527fe6989c95c5fdd2ff26557a5d578ce7a7fdcee1318c519eb86ed5beb45d0798bd928492908690606081018260038111156105e057fe5b815260200194505050505060405180910390a15050565b60005467ffffffffffffffff1681565b6000546801000000000000000090046001600160a01b03163314610661576040805162461bcd60e51b815260206004820152600c60248201526b155b985d5d1a1bdc9a5e995960a21b604482015290519081900360640190fd5b61066d84848484610673565b50505050565b6001600083600381111561068357fe5b600381111561068e57fe5b81526020808201929092526040908101600090812067ffffffffffffffff8516825290925290205460ff161561070b576040805162461bcd60e51b815260206004820152600960248201527f4475706c69636174650000000000000000000000000000000000000000000000604482015290519081900360640190fd5b600180600084600381111561071c57fe5b600381111561072757fe5b81526020808201929092526040908101600090812067ffffffffffffffff86168252909252808220805460ff19169315159390931790925590516001600160a01b03861690610bb890869084818181858888f193505050503d80600081146107ab576040519150601f19603f3d011682016040523d82523d6000602084013e6107b0565b606091505b505050505050505056fea2646970667358221220e3948b3213d87f146b54c8b7fad799797354b3f34467755d14bcf486905c27dd64736f6c63430007060033",
  "linkReferences": {},
  "deployedLinkReferences": {}
}