{
  "_format": "hh-sol-artifact-1",
  "contractName": "SwapETH",
  "sourceName": "contracts/SwapETH.sol",
  "abi": [
    {
      "inputs": [],
      "stateMutability": "nonpayable",
      "type": "constructor"
    },
    {
      "anonymous": false,
      "inputs": [
        {
          "indexed": false,
          "internalType": "uint256",
          "name": "",
          "type": "uint256"
        },
        {
          "indexed": false,
          "internalType": "address",
          "name": "",
          "type": "address"
        },
        {
          "indexed": false,
          "internalType": "uint256",
          "name": "",
          "type": "uint256"
        },
        {
          "indexed": false,
          "internalType": "enum SwapETH.Testnet",
          "name": "",
          "type": "uint8"
        }
      ],
      "name": "Received",
      "type": "event"
    },
    {
      "inputs": [],
      "name": "owner",
      "outputs": [
        {
          "internalType": "address",
          "name": "",
          "type": "address"
        }
      ],
      "stateMutability": "view",
      "type": "function"
    },
    {
      "inputs": [
        {
          "internalType": "address",
          "name": "newOwner",
          "type": "address"
        }
      ],
      "name": "passBaton",
      "outputs": [],
      "stateMutability": "nonpayable",
      "type": "function"
    },
    {
      "inputs": [
        {
          "internalType": "enum SwapETH.Testnet",
          "name": "to",
          "type": "uint8"
        }
      ],
      "name": "swap",
      "outputs": [],
      "stateMutability": "payable",
      "type": "function"
    },
    {
      "inputs": [
        {
          "internalType": "address payable",
          "name": "to",
          "type": "address"
        },
        {
          "internalType": "uint256",
          "name": "amount",
          "type": "uint256"
        },
        {
          "internalType": "enum SwapETH.Testnet",
          "name": "from",
          "type": "uint8"
        },
        {
          "internalType": "uint64",
          "name": "fromNonce",
          "type": "uint64"
        }
      ],
      "name": "transfer",
      "outputs": [],
      "stateMutability": "nonpayable",
      "type": "function"
    },
    {
      "stateMutability": "payable",
      "type": "receive"
    }
  ],
  "bytecode": "0x608060405234801561001057600080fd5b5060008054680100000000000000003302600160401b600160e01b0319909116179055610424806100426000396000f3fe6080604052600436106100435760003560e01c806310ecd0231461004f5780638da5cb5b14610084578063ae6908c5146100b5578063d80b9951146100d55761004a565b3661004a57005b600080fd5b34801561005b57600080fd5b506100826004803603602081101561007257600080fd5b50356001600160a01b0316610127565b005b34801561009057600080fd5b506100996101c7565b604080516001600160a01b039092168252519081900360200190f35b610082600480360360208110156100cb57600080fd5b503560ff166101e2565b3480156100e157600080fd5b50610082600480360360808110156100f857600080fd5b5080356001600160a01b031690602081013590604081013560ff16906060013567ffffffffffffffff1661026e565b6000546801000000000000000090046001600160a01b03163314610181576040805162461bcd60e51b815260206004820152600c60248201526b155b985d5d1a1bdc9a5e995960a21b604482015290519081900360640190fd5b600080546001600160a01b0390921668010000000000000000027fffffffff0000000000000000000000000000000000000000ffffffffffffffff909216919091179055565b6000546801000000000000000090046001600160a01b031681565b6000805467ffffffffffffffff80821660010190811667ffffffffffffffff199092168217909255604080519182523360208301819052349183018290527f55db1bfc7a283328d30a86ba2b5258714f7f784b5ad2126b8302ec30cc52a6d79284929086906060810182600381111561025757fe5b815260200194505050505060405180910390a15050565b6000546801000000000000000090046001600160a01b031633146102c8576040805162461bcd60e51b815260206004820152600c60248201526b155b985d5d1a1bdc9a5e995960a21b604482015290519081900360640190fd5b600160008360038111156102d857fe5b60038111156102e357fe5b81526020808201929092526040908101600090812067ffffffffffffffff8516825290925290205460ff1615610360576040805162461bcd60e51b815260206004820152600960248201527f4475706c69636174650000000000000000000000000000000000000000000000604482015290519081900360640190fd5b600180600084600381111561037157fe5b600381111561037c57fe5b81526020808201929092526040908101600090812067ffffffffffffffff86168252909252808220805460ff19169315159390931790925590516001600160a01b038616916108fc861502918691818181858888f193505050501580156103e7573d6000803e3d6000fd5b505050505056fea264697066735822122031e74c1d7fdbb68f3467dfaba9747541421e86f4cb96f6b42d205c2405657e7864736f6c63430007060033",
  "linkReferences": {},
  "deployedLinkReferences": {}
}